:020000040000FA
:1000000030120020191100002B1100002D110000EA
:1000100000000000000000000000000000000000E0
:100020000000000000000000000000002F11000090
:10003000000000000000000031110000331100003A
:1000400035110000250400003511000035110000B5
:1000500035110000000000003511000035110000CE
:100060000D050000351100003511000035110000AC
:100070003511000035110000351100003511000068
:100080003511000035110000351100003511000058
:100090003511000035110000351100003511000048
:1000A00035110000351100000000000000000000C4
:1000B0000000000000000000000000000000000040
:1000C00000F002F800F040F80CA030C808382418FE
:1000D0002D18A246671EAB4654465D46AC4201D180
:1000E00000F032F87E460F3E0FCCB6460126334272
:1000F00000D0FB1AA246AB46334318472814000031
:1001000048140000103A02D378C878C1FAD85207D0
:1001100001D330C830C101D504680C6070470000BD
:100120000023002400250026103A01D378C1FBD813
:10013000520700D330C100D50B6070471FB5C046D1
:10014000C0461FBD10B510BD01F060F91146FFF7A4
:10015000F5FF00F035F801F078F903B4FFF7F2FF8E
:1001600003BC01F07DF90000401E00BF00BF00BFCE
:1001700000BF00BF00BF00BF00BF00BF00BF00BF87
:1001800000BFF1D17047000070B505460C46164619
:1001900002E00FCC0FC5103E102EFAD2082E02D36B
:1001A00003CC03C5083E042E07D301CC01C5361F7E
:1001B00003E021782970641C6D1C761EF9D270BD95
:1001C00008B50E490020086001248A0514600A68F9
:1001D000002AFCD000900B230A220921082000F0FD
:1001E00059F80020064A142183009B181C60401C0B
:1001F0008842F9D900F0FEF8FEE700000001004057
:1002000000070050364881680129FCD10021816037
:1002100034488069C0B27047F8B50F4604460125DE
:100220002F4E07E02046641E00280FDB7D20C00013
:10023000FFF79AFFB0680128F4D1002C04DB0020FE
:10024000B0602848806938702846F8BD0025F4E77A
:100250002449C8612248C1690129FCD10021C1613A
:10026000704700B503460078012203E0FFF7F0FF76
:10027000985C521C0028F9D100BD10B50B4604460D
:10028000002204E0A05CFFF7E3FF521CD2B29A42C6
:10029000F8D310BDF0B5144D01248E0076193460EA
:1002A00000269F007F193E600E4FF9607B61059923
:1002B00000290AD0810049190C60910049190E608B
:1002C0003A61B86007484030C46208487862042048
:1002D000386007488460046001488660F0BD000013
:1002E00000210040002500400007005000509D0004
:1002F0000020004010B530480121C1632F48002282
:1003000002612F4B042018612E4BFF2098602E486D
:1003100041602E4841602E48C260032303610223DE
:1003200083602B4B252440335C618E244462294C2E
:10033000C461C26201632849416128498161FF218A
:10034000043141632649C163264981639121596083
:10035000254909684160012000F026F8012010BD00
:100360001B494860704710B5194CC178616200F0B4
:100370008CFF0002E06110BD10B500F086FF0002A6
:100380001349000AC86310BD70B50124174D012838
:1003900005D0022802D100F03DF82C6070BD01208C
:1003A00000F038F86C6070BDC106C90E01208840AD
:1003B0000F49086070470000C01F00400011004056
:1003C0000085004000B5004000B0004000800040C3
:1003D0000015004000D6BE89060102002500030278
:1003E000555555005B06000000000020001000403D
:1003F00000E100E010B500F0B3F800F0F7F8734842
:10040000FFF7AEFF0220FFF7BFFF10BD6F49891F46
:10041000487070476D49891F087070476B48801F8E
:1004200040787047F8B56A4D2869684C0027A41FCA
:10043000684E012821D12F612178304600680229B9
:1004400008D0A188491CA180617801290AD0092916
:1004500008D00BE0806980476088401C60800120E4
:1004600020700AE0406980470220207060780528EB
:1004700003D10120207009206070286801281AD15A
:100480002F6020780228607802D009280AD00CE07A
:10049000012802D10B2001F021F8607809280AD147
:1004A000022006E0072001F019F86078012802D147
:1004B000062001F013F86868012806D16F602078E3
:1004C000012802D13068C0688047A868012818D187
:1004D000AF6020780128607802D001280ED010E0AB
:1004E000052802D13068806880476078092808D1E3
:1004F0003068806880473068006901E03068806853
:100500008047E868012800D1EF60F8BD70B5324C33
:10051000A0682E4D0026AD1F01280AD1A66068787C
:10052000092801D100F0F7F96878012801D100F01D
:10053000E4F8E06801280ED1E6606878092805D162
:1005400000F02CFA2348006880688047687801280A
:1005500001D12249086170BD1C48801F0078704796
:1005600010B5FFF7C7FE0B2000F0B8FF184A1A4974
:10057000121DFC391A2000F087FF174C174922463C
:100580000831022000F080FF154A0121D1600020CF
:1005900020606060A060E06012488B044360CB0480
:1005A0004360114B801518601160102000F090FF1F
:1005B000012000F08DFF022000F08AFF042000F0EF
:1005C00087FF082000F084FF10BD00000A00002013
:1005D000001100402C00002040810040001000402D
:1005E000008000400083004000E100E044494348AF
:1005F00088604068004710B50120FFF707FF404CB6
:100600002620A07000F050FFA078401CA07010BD04
:100610003C4841683C4A8918C160426838493B4BB4
:1006200049785943521802604268FF39F539511828
:100630008160704770B5324C0025207800280CD0BE
:1006400020463330FFF78CFE2078401E2070207942
:10065000642808D2401C207170BD29480C30FFF777
:100660007FFE2570F3E72571E57070BD70B5284DEC
:10067000244C287801072846090F407A03290ED018
:1006800005290BD1012809D10B2000F027FF226892
:100690006878C01CC1B2284600F08CF870BD0128F3
:1006A000FCD11748C1780529F8D20122027062688E
:1006B000FF32193222606268C832A26062689B23EE
:1006C0009B00D218E260491CC17070BD10B5104883
:1006D00001780907090F032909D0052907D109491C
:1006E0000A684078C01CC1B2094800F063F810BD28
:1006F00010B50748FFF734FE10BD7047EC1400003A
:100700002400002040850040EE020000E2040000CA
:10071000D8000020F0B5C84900200D4608721F35EA
:10072000C64C48720123C2084607AA5C760F1F46D2
:10073000B7403A4204D04A7AA054521C4A7200E0B0
:100740008872401CC0B22528EDD3F0BD70B50446B8
:10075000B9480F34042221461B3000F055FDB6483D
:100760000322211D183000F04FFDB34DE0792870B1
:10077000617A207A09024018E881E17AA07A0902B8
:1007800040182882617B207B090240186882E17B47
:10079000A07B09024018A882214628460522103174
:1007A0001F3000F031FD607DC106C90EA9704009FF
:1007B000E87070BD70B5054600789F4C00070E4686
:1007C000000FE0729F499E4808600520FFF71EFE5B
:1007D00031462846FFF7BAFF98482738FFF7C0FD93
:1007E000FFF798FF20461830FFF7C6FD20461B3064
:1007F000FFF7B9FD207AA1784018C0B2252100F09A
:1008000055FD084621722246C9081F32515C430734
:100810005B0F01229A40114204D1617A00F046FD3B
:100820008648405C884AE071C0B2874940320A2855
:1008300002D843001B1D01E043009B1D8B605061EB
:100840007E4A2179763A5054491C217170BD70B5A9
:10085000FFF7E4FD7D4C784D052810D16268E889EA
:100860007B494B2341431B01C91851182160616822
:100870002A8A8018764A5043FA300818A060FFF799
:10088000CDFD092811D16268288A71494843014683
:100890002C395118216062687D210901431AD21850
:1008A000A260626840181018E06070BD634810B51F
:1008B0004E38FFF755FD10BD10B55F490020887117
:1008C0000D2000F0B1F810BD5C4810B52738407815
:1008D000C01CC1B25948273800F0C8F810BD5748AD
:1008E00010B52738FFF73CFD10BD10B5524CE08A1B
:1008F000A18988420ED1214624310522481F00F0EB
:1009000083FC207A6070FFF705FF607820720E206C
:1009100000F08AF810BD70B5474C002560790128B9
:1009200039D0E08A4B49884202D2401CE08200E084
:10093000E582207AA1784018C0B2252100F0B6FCEB
:1009400008463D4A2172C9081F32515C4307012500
:100950005B0F2A469A40114204D1617A00F0A6FC4E
:100960003648405C384AE071C0B2374940320A2804
:1009700002D843001B1D01E043009B1D8B605061AA
:10098000354845600F2000F04FF8304881686431E9
:100990008160657170BDFFF7A8FFFAE7264881798D
:1009A000491CC9B28171082908D028494A68008ABF
:1009B000274B5843101880B248607047BFF34F8FE1
:1009C00027492648C860BFF34F8FFEE70A46014615
:1009D0001A4810B54E3800F017FC10BD70B5164C13
:1009E0000D46E18A691ACA17120C5218120C120429
:1009F000891A1C4A91420ADA011D20460522243038
:100A000000F002FCA5810C2000F00EF870BD011D65
:100A1000094805221F3000F0F7FB207A6070FFF7CD
:100A200079FE6078207270BD0F494A6801238340C7
:100A30005A404A60704700006000002073010020A7
:100A4000081500002C0000200015004040850040E3
:100A5000E2040000FFFF0000001000400400FA055F
:100A600000ED00E0FF7F000000050050F8B50A46E9
:100A7000002601466A48009600F0C6FB684C694DA6
:100A8000207868708107890FA970012928D003296F
:100A90004DD0022923D1E679294610312E710A2E34
:100AA0007ED06BDC022E7CD0042E7BD0082E16D19B
:100AB000637A227A1B02D21895B20D80E37AA27A69
:100AC0001B02D21893B24B80227B647B2402121942
:100AD00092B28A8000922A46314600F07FF9F8BD32
:100AE000E96803290CD01E291ED9297814290CD2B3
:100AF0004C4B16335A5C521C5A54491C297005E061
:100B00000146474800F0A0F80AE02E701421454B3A
:100B1000401C0091C0B216330D22297900F05AFA18
:100B2000E868401CE860F8BD00F07EF8F8E7E1787E
:100B3000E97002291AD004DC002905D0012915D159
:100B40000BE0082912D114E000F06EF8617B207BE5
:100B50000902401869460880F8BDA17A607A090246
:100B6000401881B22E48FFF739FF687800F05CF832
:100B7000F8BD01462A4800F093F8F8BD102E1AD0AF
:100B8000274B0A33122E44D0522EF6D1E178A278A8
:100B90000902C91E5118227A647AC9B2240202E0FD
:100BA0002CE020E024E0121992B2EA800091314654
:100BB00000F0ABF9F8BD637A227A1B02D21895B225
:100BC0000D80E37AA27A1B02D21893B24B80227B6B
:100BD000647B2402121992B28A8000922A4631461E
:100BE00000F0B6F8F8BD2A89314600F076F8F8BD75
:100BF0004B880A88314600F060F9F8BD627A217AA4
:100C00001202891889B20246E980304600F0B6F92E
:100C1000F8BD617A207A09024018E880F8BD00002A
:100C2000980100208C000020042181434007C00F60
:100C3000C000014310B5FD48491C017000214170FE
:100C40000321FFF7C3FE10BD10B5F94AC378137036
:100C50004479037924021B1953808379C0790002F7
:100C6000181890804A07520F042042404807C00FCE
:100C7000C000024302200243EC480621027041708A
:100C8000002181700C22C270072202715922427128
:100C900081716422C27101720921FFF797FE10BDB4
:100CA0004A07520F042042404807C00FC0000243C9
:100CB00010B5DE4800210270092242708170C270B6
:100CC0000122027141718171C1710172417281729F
:100CD000C1720C21FFF77AFE10BD41074007490F92
:100CE0000422C00F5140C000014310B5CF48032378
:100CF00001700721417000218170C3700171427140
:100D00008171C371172101720A21FFF75FFE10BDC7
:100D100070B5430740075B0F0424C00F6340C00059
:100D20000343C248052503700923437000238370E1
:100D3000C5700371447183710123C37101724272E2
:100D4000110A81720A21C1720C21FFF73FFE70BDAA
:100D5000F0B5B8A4F0CC85B003970A9B6F4670C776
:100D60000524E402A34207D1134603E0092B07D070
:100D70005B1C9BB20E2BF9D3FFF7CAFF05B0F0BD89
:100D8000AA4900228A701624CC700A7104244C717E
:100D90008A711125CD7114230B7209234B728A724B
:100DA0000D23CB720A7300236D46EE5CCF185B1CDB
:100DB000DBB27E73102BF8D301234B768A76420781
:100DC0004007520FC00F6240C00002430A701A2051
:100DD00048701D219548FFF7F9FDCFE7F0B59C4617
:100DE000034694A071C885B08E466F460A9971C7B4
:100DF0005D076D0F58070426C00F7540C0001446EC
:100E000005430DE08F480027814203D10A2C0ED004
:100E10000C2C2AD07F1CFFB2022FF5D3641CA4B285
:100E20006445EFD971461846FFF772FFA6E77F4881
:100E3000002181701723C3700171467181710923EC
:100E4000C371152202720A2242728172C6720B228B
:100E50000273417300226B469C5C8618521CD2B20E
:100E6000B473102AF8D302221DE07048002181706B
:100E70001723C3700171467181710923C371152253
:100E800002720C22427281721222C2720D2202730D
:100E9000417300226B469C5C8618521CD2B2B4731C
:100EA000102AF8D303228276C17605701B21417087
:100EB0001E215E48FFF78AFD60E710B50E2A21D299
:100EC00041074007490F0422C00F5140C0000143B1
:100ED0005648062301700A21417000218170C370B9
:100EE0000171427181710522C271012202720C22CC
:100EF000427281720321C172282101730D21FFF713
:100F000065FD10BDFFF704FF10BD70B50D460499D7
:100F100004460B2A03D02946FFF7FAFE70BD184697
:100F200000F092F82046FFF77FFE70BD70B54107D4
:100F30004007490F0424C00F6140C00001433B48F3
:100F4000049A0170511D4170511C0D0A8570C170C9
:100F500000210171447181710B21C171002104E0F4
:100F60005C5C4518491C2C72C9B29142F8D3407898
:100F7000C01CC1B22D48FFF729FD70BD70B51446E5
:100F80000D4606460D2902D00C2D03D01CE000F0C2
:100F90009AF870BD61076007490F0422C00F5140E5
:100FA000C000014321480323017007214170002143
:100FB0008170C3700171427181710B22C271017223
:100FC00041720A21FFF702FD2A4631462046FFF70B
:100FD0009FFE70BD70B546074007760F0425C00F11
:100FE0006E40C00006431148049C0670E61D467022
:100FF000E11C0E0A8670C17000210171457181717A
:101000001B21C1710272110A4172002104E05A5C75
:101010004518491CAA72C9B2A142F8D34078C01C35
:10102000C1B20248FFF7D2FC70BD0000B30100203E
:10103000B60000209ECADC240EE5A9E093F3A3B518
:101040000000406E0328000070B50446022935D325
:10105000207801254107490F0B0000F008FA062F00
:10106000040A1019262FC00601D5122028E01220EC
:1010700022E0C00601D5132022E013201CE0234803
:1010800005602078C00601D5172015E0172017E06D
:101090001E48083805602078C00603D5152000F0EA
:1010A00030F802E0152000F027F81848001F05600E
:1010B0002078C00603D5162000F023F870BD162056
:1010C00000F01AF870BDF8B50546144610480A46F7
:1010D0004178142905D2831C5E5C761C5E54491C41
:1010E00000E0002141700078094B00909B1C2946CC
:1010F0002046FFF71BFFF8BD0121814005488160B4
:101100007047012181400348C16070475C0700506F
:10111000BC000020000500500A4802680F210A4365
:1011200002600948804709480047FEE7FEE7FEE7FE
:10113000FEE7FEE7FEE7000005480649064A074BC2
:10114000704700002405004069110000C100000044
:101150003002002030120020300A0020300A002027
:10116000234922480860704710B500F01DF8002898
:1011700005D021491F484860C8132049886120488C
:10118000018CC9B201290ED1818C09070BD1018DC7
:101190000906090F042906D1808D0006000F02D12F
:1011A00018490120886010BD1548018CC9B2012979
:1011B00017D1818C090714D1018D09060A0F03D1BB
:1011C000828D1206120F0ED0090F012903D1828DD4
:1011D0001206120F07D0032903D1808D0006000FDD
:1011E00001D0002070470120704700000024F40067
:1011F000D4000020DFFF07C000050040006C004065
:10120000C00F00F000060040F8B5042A2CD3830775
:1012100012D00B78491C0370401C521E83070BD060
:101220000B78491C0370401C521E830704D00B78B6
:10123000491C0370401C521E8B079B0F05D0C91A16
:10124000DF002023DE1B08C90AE0FEF79DFFF8BD82
:101250001D4608C9FD401C46B4402C4310C0121F57
:10126000042AF5D2F308C91A521EF0D40B78491C8F
:101270000370401C521EEAD40B78491C0370401CBA
:10128000012AE4D409780170F8BD0378C2781946C0
:10129000437812061B0219438378C0781B04194354
:1012A00011430902090A0006084370470022030996
:1012B0008B422CD3030A8B4211D300239C464EE071
:1012C00003460B433CD4002243088B4231D303092D
:1012D0008B421CD3030A8B4201D394463FE0C309DF
:1012E0008B4201D3CB01C01A524183098B4201D3F7
:1012F0008B01C01A524143098B4201D34B01C01AE2
:10130000524103098B4201D30B01C01A5241C30859
:101310008B4201D3CB00C01A524183088B4201D3C8
:101320008B00C01A524143088B4201D34B00C01AB4
:101330005241411A00D201465241104670475DE0C9
:10134000CA0F00D04942031000D34042534000224C
:101350009C4603098B422DD3030A8B4212D3FC22F5
:10136000890112BA030A8B420CD3890192118B4274
:1013700008D3890192118B4204D389013AD092118A
:1013800000E08909C3098B4201D3CB01C01A524145
:1013900083098B4201D38B01C01A524143098B420E
:1013A00001D34B01C01A524103098B4201D30B01F7
:1013B000C01A5241C3088B4201D3CB00C01A52411C
:1013C00083088B4201D38B00C01A5241D9D2430803
:1013D0008B4201D34B00C01A5241411A00D2014640
:1013E000634652415B10104601D34042002B00D5AA
:1013F0004942704763465B1000D3404201B500206C
:10140000C046C04602BD704770477047754600F041
:1014100023F8AE46050069465346C008C00085461D
:1014200018B020B5FFF788FE60BC00274908B64613
:101430000026C0C5C0C5C0C5C0C5C0C5C0C5C0C5E3
:10144000C0C5403D49008D4670470446C046C04671
:101450002046FEF782FE000000487047D0010020C1
:1014600001491820ABBEFEE726000200704730B4E9
:101470007446641E2578641CAB4200D21D46635D31
:101480005B00E31830BC184710B5064BC400E418E5
:101490002261616101218140596018680843186028
:1014A00010BD000000F501400649074A09184039FF
:1014B000C97E91600449403148610448012181603E
:1014C000C1607047E814000000150040000500509E
:1014D000014948607047000000130040014908605E
:1014E0007047000000120040021A50000000000087
:1014F000F7050000110600006D060000CD06000093
:1015000035060000F10600000100000000000000A8
:101510004F080000B9080000C9080000AD0800002D
:10152000DF0800004415000000000020D800000083
:10153000040100001C160000D80000205811000013
:101540002001000000000000000000000000401525
:1015500000E3AD42D92EE80B094A554D415F424F99
:10156000415244020104000001020000000000009A
:1015700000000000401300010203040506020104FC
:1015800009084A554D415F424C45000000000000EB
:1015900000000000000000000000004406000102FE
:1015A0000304050600000000000000000000000029
:1015B000FFFF00000000000000000000000000002D
:1015C000000000000000000000000000000000001B
:1015D000000000000000000000000000000000000B
:1015E0000000000000000102030405060708090AC4
:1015F0000B0C0D0E0F101112131400000000000050
:1016000014000102030405060708090A0B0C0D0E5D
:0C1610000F101112131400000024F4004D
:0400000500001119CD
:00000001FF
