:020000040000FA
:10000000D8120020691400007B1400007D14000049
:1000100000000000000000000000000000000000E0
:100020000000000000000000000000007F1400003D
:100030000000000000000000811400008314000094
:10004000851400004F060000851400008514000090
:1000500085140000000000008514000085140000D5
:10006000A50700000B08000085140000851400009F
:10007000851400008514000085140000851400001C
:10008000851400008514000085140000851400000C
:1000900085140000851400008514000085140000FC
:1000A000851400008514000000000000000000001E
:1000B0000000000000000000000000000000000040
:1000C00000F002F800F032F80CA030C8083824180C
:1000D0002D18A246671EAB4654465D46AC4201D180
:1000E00000F024F87E460F3E0FCCB6460126334280
:1000F00000D0FB1AA246AB4633431847D017000086
:10010000F01700000023002400250026103A01D338
:1001100078C1FBD8520700D330C100D50B607047BF
:100120001FB5C046C0461FBD10B510BD01F016FB7F
:100130001146FFF7F5FF00F035F801F02EFB03B490
:10014000FFF7F2FF03BC01F033FB0000401E00BFCD
:1001500000BF00BF00BF00BF00BF00BF00BF00BFA7
:1001600000BF00BF00BFF1D17047000070B5054669
:100170000C46164602E00FCC0FC5103E102EFAD2E8
:10018000082E02D303CC03C5083E042E07D301CCAE
:1001900001C5361F03E021782970641C6D1C761E92
:1001A000F9D270BD08B50F490020086001248A0506
:1001B00014600A68002AFCD000900B230A2209214F
:1001C000082000F05BF80020074A142183009B18E8
:1001D0001C60401C8842F9D900F0DEF900F01DFCDB
:1001E000FEE700000001004000070050364881682B
:1001F0000129FCD10021816034488069C0B2704778
:10020000F8B50F46044601252F4E07E02046641E30
:1002100000280FDB7D20C000FFF798FFB0680128A1
:10022000F4D1002C04DB0020B060284880693870CD
:100230002846F8BD0025F4E72449C8612248C16971
:100240000129FCD10021C161704700B50346007847
:10025000012203E0FFF7F0FF985C521C0028F9D15F
:1002600000BD10B50B460446002204E0A05CFFF779
:10027000E3FF521CD2B29A42F8D310BDF0B5144D30
:1002800001248E007619346000269F007F193E609D
:100290000E4FF9607B61059900290AD08100491948
:1002A0000C60910049190E603A61B860074840300F
:1002B000C46208487862042038600748846004609B
:1002C00001488660F0BD000000210040002500408C
:1002D0000007005000509D000020004010B5284845
:1002E0000121C163274800220261274B04201861C5
:1002F000264BFF20986026484160264841602648EA
:10030000C2600323036102238360234B252440330F
:100310005C618E244462214CC461C2620163204945
:10032000416120498161FF21043141631E49C1635C
:100330001E498163912159601D490968416001206E
:1003400000F016F8012010BD13494860704710B541
:10035000114CC178616201F040F90002E06110BD0A
:1003600010B501F03AF900020B49000AC86310BD4C
:10037000C106C90E012088400E4908607047000080
:10038000C01F0040001100400085004000B5004043
:1003900000B00040008000400015004000D6BE893B
:1003A0000601020025000302555555005B060000BA
:1003B0000000002000E100E05E49487270475D499E
:1003C00048720120891F08704870704701465948DB
:1003D00010B50622C01C01F0BFF810BD0A46014648
:1003E000544810B50B3001F0B7F810BDF8B55149BD
:1003F000457A0A464E7AD37812798C1FB54230D2AC
:10040000C7789F422DD1077997422AD12678002EAE
:1004100003D16D1C4D7201252570857A4C7AA54259
:100420001DD1C478A34219D103799A4216D14A79D1
:1004300043799A4212D18A7983799A420ED1CA7944
:10044000C3799A420AD1097A027A914206D1427856
:100450000146394801F080F800F0C5FAF8BD447251
:100460000CE0817A0029F9D1C1789942F6D101795D
:100470009142F3D16178012906D0467201460C22DF
:100480002C4801F069F8F8BD427801462A4801F08D
:1004900063F800F0B5FAF8BD264810B52730FFF72D
:1004A00053FF10BDF8B5254C2088082816D210201F
:1004B00000F038F82088224F224C00280FD02088E6
:1004C000214940182080208801462C397960FF3965
:1004D000C939B9607D2109014018F860F8BD1120C3
:1004E00000F020F813482588801F4580174A83882C
:1004F0009600991889B24D1B2180B54201DA8918FE
:1005000021801349134A09885143C91889B281804F
:100510003960D8E71049542088600F492A204031BB
:10052000486170470D494A68012383405A404A6038
:10053000704700000A0000208000002060000020BA
:100540004095004058000020C4090000B80B00008E
:1005500008010020E20400000015004000050050E2
:10056000E54A002806D0012803D15068401880B21F
:10057000506070471068401880B2106070470121C9
:10058000DE4A002803D0012800D151607047116075
:100590007047DB4948707047F8B5DA4ADA491A20E3
:1005A00001F046F9D84CD74DFC34FC3D2246294693
:1005B000022001F03DF9D54A2946012001F038F921
:1005C00000F06CF9D04901254439CD600023236047
:1005D0006360A360E360CE482A0442608A00426000
:1005E000CC0044600E014660CA4F801538600D6033
:1005F000CD60C648001F036043608360C360C64887
:1006000051104160426044604660401538600020EF
:10061000FFF7B5FF0120FFF7B2FFFF21F531002002
:10062000FFF79EFFB648C5700371F8BDB4498870E6
:100630007047B3488078704700220123B0490128F1
:1006400002D00B71CA707047CB700A717047F8B551
:10065000AC4D2D1F28690026A94CB04F012842D16E
:100660002E61207901280ED0384601686278204634
:100670008078032A17D06289521C6281012827D012
:10068000092825D028E0E08808282CD10120FFF790
:10069000D3FF3868806980472089401C208104206E
:1006A0006070E6801FE0092807D19D480068052892
:1006B00003D1924A0120403A1060E078002812D01D
:1006C000886980472089401C2081042060700AE0EE
:1006D0004869804703206070A078052803D1042072
:1006E00060700920A070286801281FD12E60207931
:1006F000012806D060780328A07805D009280CD0FE
:100700000EE0E08802200FE0012802D10B2001F06A
:10071000B9F8A0780928F5D008E0072001F0B2F870
:10072000A078012802D1062001F0ACF86868012801
:1007300010D16E602079012803D06078042806D09B
:1007400008E00F2000F0A3F8FFF7ACFE02E03868E5
:10075000C0688047A86801281FD1AE6020790128B1
:1007600006D060780428A07806D0012812D014E0C2
:100770006C48FFF73BFE10E0052802D1386880681E
:100780008047A078092808D1386880688047386891
:10079000006901E0386880688047E868012800D176
:1007A000EE60F8BD70B5584CFC3420680026012876
:1007B00003D126600D2000F06AF86068012800D19E
:1007C0006660A0684E4D01280AD1A660A878092865
:1007D00001D100F0D2FAA878012801D100F0C1F9C6
:1007E000E068012810D1E660A8780124092806D124
:1007F00000F003FB49480068806880472C70A878A7
:10080000012801D14848046170BDF8B53F4C241F50
:1008100020680025012601280CD125603748066094
:100820000E2000F034F8414800780220FFF704FF62
:10083000FFF738FE6068012807D165603048C1883D
:10084000491CC1800C2000F022F8A068364F012816
:100850000AD1A560FFF75EFE3448007801280FD06A
:100860007E603048FFF770FDE068012807D1E56041
:1008700023480079012802D13E61FFF713FEF8BD3D
:10088000FFF70AFE3E60EFE71D48407870472849B1
:100890004A68012383405A404A60704770B5FFF7A9
:1008A0001DFD174C2079012820D00B2000F0EAFF15
:1008B000102000F0E1FF012000F0DEFF022000F038
:1008C000DBFF042000F0D8FF082000F0D5FF2079DE
:1008D0000125154E01280BD000F0BCF808480C305B
:1008E000FFF732FD03206070356070BD0A20DDE740
:1008F000FFF7D2FD0120F6E7409500404090004010
:100900005A000020041100404480004044910040FF
:100910000083004000E100E000930040C40000209C
:100920003401002058010020001000400400002085
:100930000005005070B50446022935D32078012502
:100940004107490F0B0000F065FF062F040A10193C
:10095000262FC00601D5122028E0122022E0C00672
:1009600001D5132022E013201CE0374805602078D1
:10097000C00601D5172015E0172017E032480838C7
:1009800005602078C00603D5152000F050F802E07D
:10099000152000F047F82C48001F05602078C0069D
:1009A00003D5162000F043F870BD162000F03AF889
:1009B00070BDF8B50546144624480A464178142906
:1009C00006D2034629335E5C761C5E54491C00E067
:1009D0000021417000781D4B0090293329462046A4
:1009E00000F0D6FBF8BD194810B5801CC07A01286C
:1009F00005D11549091F0860162000F01DF810BD2B
:100A0000124810B5801CC07A012805D10E4908395A
:100A10000860152000F010F810BD10B50020FFF799
:100A2000CEFC10BD01218140094881607047012141
:100A300081400748C160704705494A6801238340E7
:100A40005A404A60704700005C0700507E0000205A
:100A5000000500504449434888604068004710B58D
:100A60000120FFF7E3FD404C2620A07000F0F0FECF
:100A7000A078401CA07010BD3C4841683C4A8918D1
:100A8000C160426838493B4B49785943521802606B
:100A90004268FF39F53951188160704770B5324CA2
:100AA0000025207800280CD020463330FFF74CFC7E
:100AB0002078401E20702079642808D2401C2071C4
:100AC00070BD29480C30FFF73FFC2570F3E7257116
:100AD000E57070BD70B5284D244C28780107284674
:100AE000090F407A03290ED005290BD1012809D11D
:100AF0000B2000F0C7FE22686878C01CC1B22846EF
:100B000000F08CF870BD0128FCD11748C178052988
:100B1000F8D2012202706268FF32193222606268E4
:100B2000C832A26062689B239B00D218E260491C15
:100B3000C17070BD10B5104801780907090F03296D
:100B400009D0052907D109490A684078C01CC1B2FB
:100B5000094800F063F810BD10B50748FFF7F4FB33
:100B600010BD704794180000BC0000204085004074
:100B7000EE020000E20400007F010020F0B5B94958
:100B800000200D4608721F35B74C48720123C20879
:100B90004607AA5C760F1F46B7403A4204D04A7A0D
:100BA000A054521C4A7200E08872401CC0B2252832
:100BB000EDD3F0BD70B50446AA480F340422214697
:100BC0001B3000F0C9FCA7480322211D183000F09B
:100BD000C3FCA44DE0792870617A207A090240189C
:100BE000E881E17AA07A090240182882617B207BA3
:100BF000090240186882E17BA07B09024018A882A4
:100C000021462846052210311F3000F0A5FC607DEA
:100C1000C106C90EA9704009E87070BD70B50546DF
:100C20000078904C00070E46000FE07290498F4804
:100C300008600520FFF7FAFC31462846FFF7BAFFA7
:100C400089482738FFF780FBFFF798FF20461830C8
:100C5000FFF786FB20461B30FFF779FB207AA1784F
:100C60004018C0B2252100F0C9FC08462172224676
:100C7000C9081F32515C43075B0F01229A401142A1
:100C800004D1617A00F0BAFC7748405C794AE0719F
:100C9000C0B2784940320A2802D843001B1D01E047
:100CA00043009B1D8B6050616F4A2179763A505406
:100CB000491C217170BD70B5FFF7BBFC6E4C694DCE
:100CC000052812D16268E8896C494B2341431B0116
:100CD000C918511889B2216061682A8A8018674A48
:100CE0005043FA30081880B2A060FFF7A2FC092830
:100CF00014D16268288A6149484301462C39511849
:100D000089B2216062687D210901431AD21892B22A
:100D1000A26062684018101880B2E06070BD52484E
:100D200010B54E38FFF710FB10BD4E4900208871FA
:100D300070474D4810B527384078C01CC1B24A48AA
:100D4000273800F0B3FA10BD474810B52738FFF731
:100D5000FBFA10BD10B5434CE08AA18988420BD143
:100D6000214624310522481F00F0F6FB207A6070EE
:100D7000FFF704FF6078207210BD70B5394C002574
:100D80006079012836D0E08A3D49884202D2401C71
:100D9000E08200E0E582207AA1784018C0B22521E7
:100DA00000F02CFC08462F4A2172C9081F32515C02
:100DB000430701255B0F2A469A40114204D1617A0C
:100DC00000F01CFC2848405C2A49E071C0B2294A66
:100DD00040310A2802D843001B1D01E043009B1D3F
:100DE0009360486127484560234881686431816089
:100DF000657170BDFFF7AEFFFAE71A498879401CAC
:100E000088711D4801681E3189B2416070470A46E9
:100E10000146154810B54E3800F09EFB10BD70B568
:100E2000104C0D46E18A691ACA17120C5218120C9E
:100E30001204891A144A914207DA011D204605223C
:100E4000243000F089FBA58170BD011D05480522F5
:100E50001F3000F081FB207A6070FFF78FFE607812
:100E6000207270BDF80000201A020020B0180000A7
:100E7000C40000200015004040850040E20400004E
:100E8000FFFF000000100040FF7F000004218143AD
:100E90004007C00FC000014310B5FD48491C017058
:100EA000002141700321FFF7B2FF10BD10B5F94AD0
:100EB000C37813704479037924021B195380837912
:100EC000C0790002181890804A07520F042042404F
:100ED0004807C00FC000024302200243EC4806212D
:100EE00002704170002181700C22C27007220271D1
:100EF0005922427181716422C27101720921FFF786
:100F000086FF10BD4A07520F042042404807C00F19
:100F1000C000024310B5DE48002102700922427071
:100F20008170C2700122027141718171C1710172BF
:100F300041728172C1720C21FFF769FF10BD410738
:100F40004007490F0422C00F5140C000014310B5B3
:100F5000CF48032301700721417000218170C370C5
:100F6000017142718171C371172101720A21FFF76A
:100F70004EFF10BD70B5430740075B0F0424C00F40
:100F80006340C0000343C248052503700923437032
:100F900000238370C5700371447183710123C37191
:100FA00001724272110A81720A21C1720C21FFF78B
:100FB0002EFF70BDF0B5B8A4F0CC85B003970A9BA6
:100FC0006F4670C70524E402A34207D1134603E02D
:100FD000092B07D05B1C9BB20E2BF9D3FFF7CAFF7E
:100FE00005B0F0BDAA4900228A701624CC700A719F
:100FF00004244C718A711125CD7114230B720923BD
:101000004B728A720D23CB720A7300236D46EE5C1D
:10101000CF185B1CDBB27E73102BF8D301234B7609
:101020008A7642074007520FC00F6240C000024359
:101030000A701A2048701D219548FFF7E8FECFE797
:10104000F0B59C46034694A071C885B08E466F46A5
:101050000A9971C75D076D0F58070426C00F7540C8
:10106000C000144605430DE08F480027814203D19C
:101070000A2C0ED00C2C2AD07F1CFFB2022FF5D3E5
:10108000641CA4B26445EFD971461846FFF772FF9D
:10109000A6E77F48002181701723C3700171467154
:1010A00081710923C371152202720A224272817270
:1010B000C6720B220273417300226B469C5C861839
:1010C000521CD2B2B473102AF8D302221DE0704829
:1010D000002181701723C37001714671817109234A
:1010E000C371152202720C22427281721222C272E4
:1010F0000D220273417300226B469C5C8618521CC1
:10110000D2B2B473102AF8D303228276C176057066
:101110001B2141701E215E48FFF779FE60E710B584
:101120000E2A21D241074007490F0422C00F514027
:10113000C00001435648062301700A214170002176
:101140008170C3700171427181710522C2710122E7
:1011500002720C22427281720321C1722821017332
:101160000D21FFF754FE10BDFFF704FF10BD70B551
:101170000D46049904460B2A03D02946FFF7FAFED0
:1011800070BD1846FFF7D6FB2046FFF77FFE70BD07
:1011900070B541074007490F0424C00F6140C000EB
:1011A00001433B48049A0170511D4170511C0D0AC6
:1011B0008570C17000210171447181710B21C17171
:1011C000002104E05C5C4518491C2C72C9B29142B4
:1011D000F8D34078C01CC1B22D48FFF718FE70BD8F
:1011E00070B514460D4606460D2902D00C2D03D0CD
:1011F0001CE0FFF7DEFB70BD61076007490F0422AA
:10120000C00F5140C0000143214803230170072152
:10121000417000218170C3700171427181710B2294
:10122000C271017241720A21FFF7F1FD2A4631466F
:101230002046FFF79FFE70BD70B546074007760F4A
:101240000425C00F6E40C00006431148049C067080
:10125000E61D4670E11C0E0A8670C1700021017106
:10126000457181711B21C1710272110A4172002105
:1012700004E05A5C4518491CAA72C9B2A142F8D3CD
:101280004078C01CC1B20248FFF7C1FD70BD00002C
:101290003F020020220100209ECADC240EE5A9E0C6
:1012A00093F3A3B50000406E03280000F8B50A468A
:1012B000002601466A48009600F04EF9684C694DD8
:1012C000207868708107890FA970012928D0032927
:1012D0004DD0022923D1E679294610312E710A2EEC
:1012E0007ED06BDC022E7CD0042E7BD0082E16D153
:1012F000637A227A1B02D21895B20D80E37AA27A21
:101300001B02D21893B24B80227B647B24021219F9
:1013100092B28A8000922A463146FFF791FEF8BDCC
:10132000E96803290CD01E291ED9297814290CD26A
:101330004C4B16335A5C521C5A54491C297005E018
:1013400001464748FFF7B2FD0AE02E701421454BD5
:10135000401C0091C0B216330D222979FFF76CFFB3
:10136000E868401CE860F8BDFFF790FDF8E7E17819
:10137000E97002291AD004DC002905D0012915D111
:101380000BE0082912D114E0FFF780FD617B207B80
:101390000902401869460880F8BDA17A607A0902FE
:1013A000401881B22E48FFF73AFD6878FFF76EFDCE
:1013B000F8BD01462A48FFF7A5FDF8BD102E1AD04A
:1013C000274B0A33122E44D0522EF6D1E178A27860
:1013D0000902C91E5118227A647AC9B2240202E0B5
:1013E0002CE020E024E0121992B2EA80009131460C
:1013F000FFF7BDFEF8BD637A227A1B02D21895B2C0
:101400000D80E37AA27A1B02D21893B24B80227B22
:10141000647B2402121992B28A8000922A463146D5
:10142000FFF7C8FDF8BD2A893146FFF788FDF8BDF2
:101430004B880A883146FFF772FEF8BD627A217A3E
:101440001202891889B20246E9803046FFF7C8FEC9
:10145000F8BD617A207A09024018E880F8BD0000E2
:101460005B020020280100200A4802680F210A437D
:1014700002600948804709480047FEE7FEE7FEE7AB
:10148000FEE7FEE7FEE7000005480649064A074B6F
:101490007047000024050040B9140000C10000009E
:1014A000D8020020D8120020D80A0020D80A002034
:1014B000234922480860704710B500F01DF8002845
:1014C00005D021491F484860C81320498861204839
:1014D000018CC9B201290ED1818C09070BD1018D74
:1014E0000906090F042906D1808D0006000F02D1DC
:1014F00018490120886010BD1548018CC9B2012926
:1015000017D1818C090714D1018D09060A0F03D167
:10151000828D1206120F0ED0090F012903D1828D80
:101520001206120F07D0032903D1808D0006000F89
:1015300001D0002070470120704700000024F40013
:1015400054010020DFFF07C000050040006C004090
:10155000C00F00F000060040F8B5042A2CD3830722
:1015600012D00B78491C0370401C521E83070BD00D
:101570000B78491C0370401C521E830704D00B7863
:10158000491C0370401C521E8B079B0F05D0C91AC3
:10159000DF002023DE1B08C90AE0FEF7E7FDF8BDE7
:1015A0001D4608C9FD401C46B4402C4310C0121F04
:1015B000042AF5D2F308C91A521EF0D40B78491C3C
:1015C0000370401C521EEAD40B78491C0370401C67
:1015D000012AE4D409780170F8BD0378C27819466D
:1015E000437812061B0219438378C0781B04194301
:1015F00011430902090A0006084370470022030943
:101600008B422CD3030A8B4211D300239C464EE01D
:1016100003460B433CD4002243088B4231D30309D9
:101620008B421CD3030A8B4201D394463FE0C3098B
:101630008B4201D3CB01C01A524183098B4201D3A3
:101640008B01C01A524143098B4201D34B01C01A8E
:10165000524103098B4201D30B01C01A5241C30806
:101660008B4201D3CB00C01A524183088B4201D375
:101670008B00C01A524143088B4201D34B00C01A61
:101680005241411A00D201465241104670475DE076
:10169000CA0F00D04942031000D3404253400022F9
:1016A0009C4603098B422DD3030A8B4212D3FC22A2
:1016B000890112BA030A8B420CD3890192118B4221
:1016C00008D3890192118B4204D389013AD0921137
:1016D00000E08909C3098B4201D3CB01C01A5241F2
:1016E00083098B4201D38B01C01A524143098B42BB
:1016F00001D34B01C01A524103098B4201D30B01A4
:10170000C01A5241C3088B4201D3CB00C01A5241C8
:1017100083088B4201D38B00C01A5241D9D24308AF
:101720008B4201D34B00C01A5241411A00D20146EC
:10173000634652415B10104601D34042002B00D556
:101740004942704763465B1000D3404201B5002018
:10175000C046C04602BD704770477047754600F0EE
:1017600023F8AE46050069465346C008C0008546CA
:1017700018B020B5FFF788FE60BC00274908B646C0
:101780000026C0C5C0C5C0C5C0C5C0C5C0C5C0C590
:10179000C0C5403D49008D4670470446C046C0461E
:1017A0002046FEF7CCFC000000487047780200207D
:1017B00001491820ABBEFEE726000200704770B555
:1017C0008C180578401C6B075B0F01D10378401C17
:1017D0002A1106D10278401C03E00678401C0E70E6
:1017E000491C5B1EF9D12B0705D40023521E0DD4D2
:1017F0000B70491CFAE70378401CCB1A921C03E0DB
:101800001D780D70491C5B1C521EF9D5A142D8D31E
:10181000002070BD30B47446641E2578641CAB4251
:1018200000D21D46635D5B00E31830BC1847000022
:1018300010B5064BC400E4182261616101218140AA
:10184000596018680843186010BD000000F5014099
:101850000649074A09184039C97E91600449403158
:101860004861044801218160C16070479018000000
:101870000015004000050050014948607047000015
:10188000001300400149086070470000001200404A
:10189000021A5000000000005F0A0000790A0000F0
:1018A000D50A0000350B00009D0A0000590B00000E
:1018B0000100000000000000B70C00002B0D00002C
:1018C000330D00001F0D0000490D0000EC18000052
:1018D0000000002058010000BE1700005C19000045
:1018E000580100208011000004010000A12E4013C7
:1018F00001080901041B0A030113401300151E010E
:10190000020304050602010409084A554D415F4DD2
:101910004553481340153809E3AD42D92EE80B0969
:10192000321E424F415244411214032503034973AE
:10193000100F0708090A0B0C0D0E0F1011121314CB
:101940000B1B010A970411424C455B440627C10357
:0C19500038FFFF091397211324F4000056
:04000005000014697A
:00000001FF
